:100000000C944F000C9400000C9400000C94000021
:100010000C9400000C9400000C9400000C94000060
:100020000C9400000C9400000C9400000C94000050
:100030000C9400000C9400000C9400000C94000040
:100040000C9400000C9400000C9400000C94000030
:100050000C9400000C9400000C9400000C94000020
:100060000C9400000C9400000C9400000C94000010
:100070000C9400000C9400000C9400000C94000000
:100080000C9400000C9400000C9400001027E8036E
:1000900064000A0001000010000110000100F89443
:1000A000EE27ECBBF1E0F5BFE5BFE0936C008DE01F
:1000B000A2E0BB27ED938A95E9F780E090E1A0E00C
:1000C000B1E0ED930197E9F78BBFEFEFEDBFE0E112
:1000D000EEBFC0E0D5E00C946D002297E0E0E8832D
:1000E000E98300E010E020E030E041E050E0EFEF95
:1000F000EABBE0E0E2B90C9905C0EFEFEBBB21E011
:1001000030E002C0E0E0EBBB0D9905C0EFEFEBBBC8
:1001100022E030E002C0E0E0EBBBE1E0F0E0E2171B
:10012000F30701F5E881F981309769F44BBB440F7F
:10013000551F23D0E03831F4E1E0F0E0E883F983A3
:1001400040E850E00FC0A881B981119759F44BBB2A
:100150005595479512D0E13029F4E0E0E883E98332
:1001600041E050E0E2E0F0E0E217F30721F4EAEAD0
:1001700009D0E5E507D0BFCFFFCFA6E9B0E006D0B4
:10018000EBB30895EBBBA6E9B0E000C0109639F0E0
:10019000A89580EA9FE00197F1F71197C9F70895B4
:00000001FF
